{
  "_format": "hh-sol-artifact-1",
  "contractName": "VirtualFloorStateWrapper",
  "sourceName": "contracts/dev/mock/enum-wrapper/VirtualFloorComputedStateWrapper.sol",
  "abi": [
    {
      "inputs": [],
      "name": "Active_Closed_ResolvableLater",
      "outputs": [
        {
          "internalType": "enum VirtualFloorState",
          "name": "",
          "type": "uint8"
        }
      ],
      "stateMutability": "view",
      "type": "function"
    },
    {
      "inputs": [],
      "name": "Active_Closed_ResolvableNever",
      "outputs": [
        {
          "internalType": "enum VirtualFloorState",
          "name": "",
          "type": "uint8"
        }
      ],
      "stateMutability": "view",
      "type": "function"
    },
    {
      "inputs": [],
      "name": "Active_Closed_ResolvableNow",
      "outputs": [
        {
          "internalType": "enum VirtualFloorState",
          "name": "",
          "type": "uint8"
        }
      ],
      "stateMutability": "view",
      "type": "function"
    },
    {
      "inputs": [],
      "name": "Active_Open_MaybeResolvableNever",
      "outputs": [
        {
          "internalType": "enum VirtualFloorState",
          "name": "",
          "type": "uint8"
        }
      ],
      "stateMutability": "view",
      "type": "function"
    },
    {
      "inputs": [],
      "name": "Active_Open_ResolvableLater",
      "outputs": [
        {
          "internalType": "enum VirtualFloorState",
          "name": "",
          "type": "uint8"
        }
      ],
      "stateMutability": "view",
      "type": "function"
    },
    {
      "inputs": [],
      "name": "Claimable_Payouts",
      "outputs": [
        {
          "internalType": "enum VirtualFloorState",
          "name": "",
          "type": "uint8"
        }
      ],
      "stateMutability": "view",
      "type": "function"
    },
    {
      "inputs": [],
      "name": "Claimable_Refunds_Flagged",
      "outputs": [
        {
          "internalType": "enum VirtualFloorState",
          "name": "",
          "type": "uint8"
        }
      ],
      "stateMutability": "view",
      "type": "function"
    },
    {
      "inputs": [],
      "name": "Claimable_Refunds_ResolvableNever",
      "outputs": [
        {
          "internalType": "enum VirtualFloorState",
          "name": "",
          "type": "uint8"
        }
      ],
      "stateMutability": "view",
      "type": "function"
    },
    {
      "inputs": [],
      "name": "Claimable_Refunds_ResolvedNoWinners",
      "outputs": [
        {
          "internalType": "enum VirtualFloorState",
          "name": "",
          "type": "uint8"
        }
      ],
      "stateMutability": "view",
      "type": "function"
    },
    {
      "inputs": [],
      "name": "None",
      "outputs": [
        {
          "internalType": "enum VirtualFloorState",
          "name": "",
          "type": "uint8"
        }
      ],
      "stateMutability": "view",
      "type": "function"
    }
  ],
  "bytecode": "0x608060405234801561001057600080fd5b50610167806100206000396000f3fe608060405234801561001057600080fd5b506004361061009e5760003560e01c80637bee0db0116100665780637bee0db0146100e15780638ae0d1a0146100e9578063d8934399146100f1578063e6bbbb24146100f9578063ef0ea00e1461010157600080fd5b80631adba04b146100a35780632e9c9853146100c15780633007150a146100c957806331234354146100d1578063657adb49146100d9575b600080fd5b6100ab600281565b6040516100b89190610109565b60405180910390f35b6100ab600881565b6100ab600781565b6100ab600081565b6100ab600681565b6100ab600181565b6100ab600381565b6100ab600481565b6100ab600981565b6100ab600581565b60208101600a831061012b57634e487b7160e01b600052602160045260246000fd5b9190529056fea26469706673582212202571b9b1eebfbbc13f90637281cfbfb6c64af2cd036b2c4aa9c2c7394fcd91ab64736f6c634300080c0033",
  "linkReferences": {},
  "deployedLinkReferences": {}
}