{
  "_format": "hh-sol-artifact-1",
  "contractName": "DummyUSDTether",
  "sourceName": "contracts/dev/dummy/DummyUSDTether.sol",
  "abi": [
    {
      "inputs": [],
      "stateMutability": "nonpayable",
      "type": "constructor"
    },
    {
      "anonymous": false,
      "inputs": [
        {
          "indexed": true,
          "internalType": "address",
          "name": "owner",
          "type": "address"
        },
        {
          "indexed": true,
          "internalType": "address",
          "name": "spender",
          "type": "address"
        },
        {
          "indexed": false,
          "internalType": "uint256",
          "name": "value",
          "type": "uint256"
        }
      ],
      "name": "Approval",
      "type": "event"
    },
    {
      "anonymous": false,
      "inputs": [
        {
          "indexed": true,
          "internalType": "address",
          "name": "from",
          "type": "address"
        },
        {
          "indexed": true,
          "internalType": "uint256",
          "name": "amount",
          "type": "uint256"
        }
      ],
      "name": "Deposit",
      "type": "event"
    },
    {
      "anonymous": false,
      "inputs": [
        {
          "indexed": false,
          "internalType": "string",
          "name": "",
          "type": "string"
        }
      ],
      "name": "Timelapse",
      "type": "event"
    },
    {
      "anonymous": false,
      "inputs": [
        {
          "indexed": true,
          "internalType": "address",
          "name": "from",
          "type": "address"
        },
        {
          "indexed": true,
          "internalType": "address",
          "name": "to",
          "type": "address"
        },
        {
          "indexed": false,
          "internalType": "uint256",
          "name": "value",
          "type": "uint256"
        }
      ],
      "name": "Transfer",
      "type": "event"
    },
    {
      "anonymous": false,
      "inputs": [
        {
          "indexed": true,
          "internalType": "address",
          "name": "to",
          "type": "address"
        },
        {
          "indexed": true,
          "internalType": "uint256",
          "name": "amount",
          "type": "uint256"
        }
      ],
      "name": "Withdrawal",
      "type": "event"
    },
    {
      "inputs": [
        {
          "internalType": "address payable",
          "name": "owners",
          "type": "address"
        }
      ],
      "name": "addOwners",
      "outputs": [
        {
          "internalType": "uint256",
          "name": "",
          "type": "uint256"
        }
      ],
      "stateMutability": "nonpayable",
      "type": "function"
    },
    {
      "inputs": [
        {
          "internalType": "address",
          "name": "owner",
          "type": "address"
        },
        {
          "internalType": "address",
          "name": "spender",
          "type": "address"
        }
      ],
      "name": "allowance",
      "outputs": [
        {
          "internalType": "uint256",
          "name": "",
          "type": "uint256"
        }
      ],
      "stateMutability": "view",
      "type": "function"
    },
    {
      "inputs": [
        {
          "internalType": "address",
          "name": "spender",
          "type": "address"
        },
        {
          "internalType": "uint256",
          "name": "amount",
          "type": "uint256"
        }
      ],
      "name": "approve",
      "outputs": [
        {
          "internalType": "bool",
          "name": "",
          "type": "bool"
        }
      ],
      "stateMutability": "nonpayable",
      "type": "function"
    },
    {
      "inputs": [
        {
          "internalType": "address",
          "name": "account",
          "type": "address"
        }
      ],
      "name": "balanceOf",
      "outputs": [
        {
          "internalType": "uint256",
          "name": "",
          "type": "uint256"
        }
      ],
      "stateMutability": "view",
      "type": "function"
    },
    {
      "inputs": [
        {
          "internalType": "address",
          "name": "_address",
          "type": "address"
        }
      ],
      "name": "checkAddressBalance",
      "outputs": [
        {
          "internalType": "uint256",
          "name": "",
          "type": "uint256"
        }
      ],
      "stateMutability": "view",
      "type": "function"
    },
    {
      "inputs": [
        {
          "internalType": "address",
          "name": "",
          "type": "address"
        }
      ],
      "name": "checkWhitelist",
      "outputs": [
        {
          "internalType": "bool",
          "name": "",
          "type": "bool"
        }
      ],
      "stateMutability": "view",
      "type": "function"
    },
    {
      "inputs": [],
      "name": "decimals",
      "outputs": [
        {
          "internalType": "uint8",
          "name": "",
          "type": "uint8"
        }
      ],
      "stateMutability": "pure",
      "type": "function"
    },
    {
      "inputs": [
        {
          "internalType": "address",
          "name": "spender",
          "type": "address"
        },
        {
          "internalType": "uint256",
          "name": "subtractedValue",
          "type": "uint256"
        }
      ],
      "name": "decreaseAllowance",
      "outputs": [
        {
          "internalType": "bool",
          "name": "",
          "type": "bool"
        }
      ],
      "stateMutability": "nonpayable",
      "type": "function"
    },
    {
      "inputs": [
        {
          "internalType": "uint256",
          "name": "_pos",
          "type": "uint256"
        }
      ],
      "name": "deleteUserWhitelist",
      "outputs": [
        {
          "internalType": "bool",
          "name": "",
          "type": "bool"
        }
      ],
      "stateMutability": "nonpayable",
      "type": "function"
    },
    {
      "inputs": [],
      "name": "getBalance",
      "outputs": [
        {
          "internalType": "uint256",
          "name": "",
          "type": "uint256"
        }
      ],
      "stateMutability": "view",
      "type": "function"
    },
    {
      "inputs": [
        {
          "internalType": "address",
          "name": "_addr",
          "type": "address"
        }
      ],
      "name": "getUserId",
      "outputs": [
        {
          "internalType": "int256",
          "name": "",
          "type": "int256"
        },
        {
          "internalType": "string",
          "name": "",
          "type": "string"
        }
      ],
      "stateMutability": "view",
      "type": "function"
    },
    {
      "inputs": [
        {
          "internalType": "address",
          "name": "spender",
          "type": "address"
        },
        {
          "internalType": "uint256",
          "name": "addedValue",
          "type": "uint256"
        }
      ],
      "name": "increaseAllowance",
      "outputs": [
        {
          "internalType": "bool",
          "name": "",
          "type": "bool"
        }
      ],
      "stateMutability": "nonpayable",
      "type": "function"
    },
    {
      "inputs": [],
      "name": "isAddressWhilelisted",
      "outputs": [
        {
          "internalType": "bool",
          "name": "",
          "type": "bool"
        }
      ],
      "stateMutability": "view",
      "type": "function"
    },
    {
      "inputs": [],
      "name": "lockTime",
      "outputs": [
        {
          "internalType": "uint256",
          "name": "",
          "type": "uint256"
        }
      ],
      "stateMutability": "view",
      "type": "function"
    },
    {
      "inputs": [
        {
          "internalType": "uint256",
          "name": "amount",
          "type": "uint256"
        }
      ],
      "name": "mint",
      "outputs": [],
      "stateMutability": "nonpayable",
      "type": "function"
    },
    {
      "inputs": [],
      "name": "name",
      "outputs": [
        {
          "internalType": "string",
          "name": "",
          "type": "string"
        }
      ],
      "stateMutability": "view",
      "type": "function"
    },
    {
      "inputs": [
        {
          "internalType": "address",
          "name": "",
          "type": "address"
        }
      ],
      "name": "nextAccessTime",
      "outputs": [
        {
          "internalType": "uint256",
          "name": "",
          "type": "uint256"
        }
      ],
      "stateMutability": "view",
      "type": "function"
    },
    {
      "inputs": [
        {
          "internalType": "uint256",
          "name": "amount",
          "type": "uint256"
        }
      ],
      "name": "setLockTime",
      "outputs": [],
      "stateMutability": "nonpayable",
      "type": "function"
    },
    {
      "inputs": [
        {
          "internalType": "uint256",
          "name": "_timeinMinutes",
          "type": "uint256"
        }
      ],
      "name": "setTimelap",
      "outputs": [
        {
          "internalType": "bool",
          "name": "",
          "type": "bool"
        }
      ],
      "stateMutability": "nonpayable",
      "type": "function"
    },
    {
      "inputs": [],
      "name": "symbol",
      "outputs": [
        {
          "internalType": "string",
          "name": "",
          "type": "string"
        }
      ],
      "stateMutability": "view",
      "type": "function"
    },
    {
      "inputs": [],
      "name": "totalSupply",
      "outputs": [
        {
          "internalType": "uint256",
          "name": "",
          "type": "uint256"
        }
      ],
      "stateMutability": "view",
      "type": "function"
    },
    {
      "inputs": [
        {
          "internalType": "address",
          "name": "to",
          "type": "address"
        },
        {
          "internalType": "uint256",
          "name": "amount",
          "type": "uint256"
        }
      ],
      "name": "transfer",
      "outputs": [
        {
          "internalType": "bool",
          "name": "",
          "type": "bool"
        }
      ],
      "stateMutability": "nonpayable",
      "type": "function"
    },
    {
      "inputs": [
        {
          "internalType": "address",
          "name": "from",
          "type": "address"
        },
        {
          "internalType": "address",
          "name": "to",
          "type": "address"
        },
        {
          "internalType": "uint256",
          "name": "amount",
          "type": "uint256"
        }
      ],
      "name": "transferFrom",
      "outputs": [
        {
          "internalType": "bool",
          "name": "",
          "type": "bool"
        }
      ],
      "stateMutability": "nonpayable",
      "type": "function"
    },
    {
      "inputs": [
        {
          "internalType": "address",
          "name": "to",
          "type": "address"
        },
        {
          "internalType": "uint256",
          "name": "amount",
          "type": "uint256"
        }
      ],
      "name": "transfers",
      "outputs": [],
      "stateMutability": "nonpayable",
      "type": "function"
    }
  ],
  "bytecode": "0x62015180600655603c60095560a06040526005546001600160a01b031660809081526200003190600b906001620001fe565b503480156200003f57600080fd5b50604080518082018252601281527155534420546574686572202844756d6d792960701b6020808301918252835180850190945260048452631554d11560e21b908401528151919291620000969160039162000268565b508051620000ac90600490602084019062000268565b505060058054336001600160a01b03199182168117909255426008556000828152600a60205260408120805460ff19166001908117909155600b805491820181559091527f0175b7a638427703f0dbe7bb9bbf987a2551717b34e79f33b5b1008d1fa01db90180549091168217905562000132915069152d02c7e14af680000062000138565b62000360565b6001600160a01b038216620001935760405162461bcd60e51b815260206004820152601f60248201527f45524332303a206d696e7420746f20746865207a65726f206164647265737300604482015260640160405180910390fd5b8060026000828254620001a79190620002fc565b90915550506001600160a01b038216600081815260208181526040808320805486019055518481527fddf252ad1be2c89b69c2b068fc378daa952ba7f163c4a11628f55a4df523b3ef910160405180910390a35050565b82805482825590600052602060002090810192821562000256579160200282015b828111156200025657825182546001600160a01b0319166001600160a01b039091161782556020909201916001909101906200021f565b5062000264929150620002e5565b5090565b828054620002769062000323565b90600052602060002090601f0160209004810192826200029a576000855562000256565b82601f10620002b557805160ff191683800117855562000256565b8280016001018555821562000256579182015b8281111562000256578251825591602001919060010190620002c8565b5b80821115620002645760008155600101620002e6565b600082198211156200031e57634e487b7160e01b600052601160045260246000fd5b500190565b600181811c908216806200033857607f821691505b602082108114156200035a57634e487b7160e01b600052602260045260246000fd5b50919050565b61113f80620003706000396000f3fe608060405234801561001057600080fd5b50600436106101585760003560e01c806353cc580b116100c3578063a0712d681161007c578063a0712d68146102df578063a457c2d7146102f2578063a9059cbb14610305578063ae04d45d14610318578063d351cc571461032b578063dd62ed3e1461033e57600080fd5b806353cc580b1461027657806357b1dbe3146102895780635dc6e5811461029e5780635f3b1f3b146102b157806370a08231146102c457806395d89b41146102d757600080fd5b806323b872dd1161011557806323b872dd146101e85780632b956ff7146101fb578063313ce5671461021c578063395093511461022b5780633fd2eaba1461023e578063516fad0a1461025657600080fd5b806306fdde031461015d578063095ea7b31461017b5780630d6680871461019e57806312065fe0146101b557806318160ddd146101bd5780631950c218146101c5575b600080fd5b610165610351565b6040516101729190610ea9565b60405180910390f35b61018e610189366004610ed8565b6103e3565b6040519015158152602001610172565b6101a760065481565b604051908152602001610172565b6101a76103fb565b6002546101a7565b61018e6101d3366004610f04565b600a6020526000908152604090205460ff1681565b61018e6101f6366004610f21565b61040b565b61020e610209366004610f04565b61042f565b604051610172929190610f62565b60405160068152602001610172565b61018e610239366004610ed8565b610526565b336000908152600a602052604090205460ff1661018e565b6101a7610264366004610f04565b60076020526000908152604090205481565b6101a7610284366004610f04565b610548565b61029c610297366004610ed8565b610559565b005b61018e6102ac366004610f83565b610674565b6101a76102bf366004610f04565b6107de565b6101a76102d2366004610f04565b610879565b610165610894565b61029c6102ed366004610f83565b6108a3565b61018e610300366004610ed8565b610926565b61018e610313366004610ed8565b6109a1565b61029c610326366004610f83565b6109af565b61018e610339366004610f83565b6109ea565b6101a761034c366004610f9c565b610a30565b60606003805461036090610fd5565b80601f016020809104026020016040519081016040528092919081815260200182805461038c90610fd5565b80156103d95780601f106103ae576101008083540402835291602001916103d9565b820191906000526020600020905b8154815290600101906020018083116103bc57829003601f168201915b5050505050905090565b6000336103f1818585610a5b565b5060019392505050565b600061040633610879565b905090565b600033610419858285610b7f565b610424858585610bf9565b506001949350505050565b6005546000906060906001600160a01b031633146104685760405162461bcd60e51b815260040161045f90611010565b60405180910390fd5b60408051808201909152600d81526c6e6f7420617661696c61626c6560981b60208201526000199060005b600b546104a290600190611074565b81101561051b57856001600160a01b0316600b82815481106104c6576104c661108b565b6000918252602090912001546001600160a01b031614156105095780925060405180604001604052806009815260200168617661696c61626c6560b81b81525091505b80610513816110a1565b915050610493565b509092509050915091565b6000336103f18185856105398383610a30565b61054391906110bc565b610a5b565b600061055382610879565b92915050565b6001600160a01b03821661059f5760405162461bcd60e51b815260206004820152600d60248201526c081e995c9bc81858d8dbdd5b9d609a1b604482015260640161045f565b633b9aca008111156105e35760405162461bcd60e51b815260206004820152600d60248201526c0616d6f756e74203c3d3130303609c1b604482015260640161045f565b6001600160a01b03821660009081526007602052604090205442101561063f5760405162461bcd60e51b815260206004820152601160248201527003a34b6b2903737ba1032b630b839b2b21607d1b604482015260640161045f565b60065461064c90426110bc565b6001600160a01b03831660009081526007602052604090205561066f82826109a1565b505050565b6005546000906001600160a01b031633146106a15760405162461bcd60e51b815260040161045f90611010565b60006001600160a01b0316600b83815481106106bf576106bf61108b565b6000918252602090912001546001600160a01b0316141561071b5760405162461bcd60e51b81526020600482015260166024820152751059191c995cdcc81b9bdd08105d5d1a1bdc9a5e995960521b604482015260640161045f565b600b5460009061072d90600190611074565b90506000600b82815481106107445761074461108b565b600091825260209091200154600b80546001600160a01b0390921692508291869081106107735761077361108b565b9060005260206000200160006101000a8154816001600160a01b0302191690836001600160a01b03160217905550600b8054806107b2576107b26110d4565b600082815260209020600019908201810180546001600160a01b03191690550190555060019392505050565b6005546000906001600160a01b0316331461080b5760405162461bcd60e51b815260040161045f90611010565b50600b8054600180820183557f0175b7a638427703f0dbe7bb9bbf987a2551717b34e79f33b5b1008d1fa01db990910180546001600160a01b0319166001600160a01b039485161790556005549092166000908152600a60205260409020805460ff19169092179091555490565b6001600160a01b031660009081526020819052604090205490565b60606004805461036090610fd5565b336000908152600a602052604090205460ff161515806108cd57506005546001600160a01b031633145b6109195760405162461bcd60e51b815260206004820152601f60248201527f546869732061646472657373206973206e6f742077686974656c697374656400604482015260640161045f565b6109233382610d9d565b50565b600033816109348286610a30565b9050838110156109945760405162461bcd60e51b815260206004820152602560248201527f45524332303a2064656372656173656420616c6c6f77616e63652062656c6f77604482015264207a65726f60d81b606482015260840161045f565b6104248286868403610a5b565b6000336103f1818585610bf9565b6005546001600160a01b031633146109d95760405162461bcd60e51b815260040161045f90611010565b6109e481603c6110ea565b60065550565b6005546000906001600160a01b03163314610a175760405162461bcd60e51b815260040161045f90611010565b6000610a2483603c6110ea565b60095550600192915050565b6001600160a01b03918216600090815260016020908152604080832093909416825291909152205490565b6001600160a01b038316610abd5760405162461bcd60e51b8152602060048201526024808201527f45524332303a20617070726f76652066726f6d20746865207a65726f206164646044820152637265737360e01b606482015260840161045f565b6001600160a01b038216610b1e5760405162461bcd60e51b815260206004820152602260248201527f45524332303a20617070726f766520746f20746865207a65726f206164647265604482015261737360f01b606482015260840161045f565b6001600160a01b0383811660008181526001602090815260408083209487168084529482529182902085905590518481527f8c5be1e5ebec7d5bd14f71427d1e84f3dd0314c0f7b2291e5b200ac8c7c3b925910160405180910390a3505050565b6000610b8b8484610a30565b90506000198114610bf35781811015610be65760405162461bcd60e51b815260206004820152601d60248201527f45524332303a20696e73756666696369656e7420616c6c6f77616e6365000000604482015260640161045f565b610bf38484848403610a5b565b50505050565b6001600160a01b038316610c5d5760405162461bcd60e51b815260206004820152602560248201527f45524332303a207472616e736665722066726f6d20746865207a65726f206164604482015264647265737360d81b606482015260840161045f565b6001600160a01b038216610cbf5760405162461bcd60e51b815260206004820152602360248201527f45524332303a207472616e7366657220746f20746865207a65726f206164647260448201526265737360e81b606482015260840161045f565b6001600160a01b03831660009081526020819052604090205481811015610d375760405162461bcd60e51b815260206004820152602660248201527f45524332303a207472616e7366657220616d6f756e7420657863656564732062604482015265616c616e636560d01b606482015260840161045f565b6001600160a01b03848116600081815260208181526040808320878703905593871680835291849020805487019055925185815290927fddf252ad1be2c89b69c2b068fc378daa952ba7f163c4a11628f55a4df523b3ef910160405180910390a3610bf3565b6001600160a01b038216610df35760405162461bcd60e51b815260206004820152601f60248201527f45524332303a206d696e7420746f20746865207a65726f206164647265737300604482015260640161045f565b8060026000828254610e0591906110bc565b90915550506001600160a01b038216600081815260208181526040808320805486019055518481527fddf252ad1be2c89b69c2b068fc378daa952ba7f163c4a11628f55a4df523b3ef910160405180910390a35050565b6000815180845260005b81811015610e8257602081850181015186830182015201610e66565b81811115610e94576000602083870101525b50601f01601f19169290920160200192915050565b602081526000610ebc6020830184610e5c565b9392505050565b6001600160a01b038116811461092357600080fd5b60008060408385031215610eeb57600080fd5b8235610ef681610ec3565b946020939093013593505050565b600060208284031215610f1657600080fd5b8135610ebc81610ec3565b600080600060608486031215610f3657600080fd5b8335610f4181610ec3565b92506020840135610f5181610ec3565b929592945050506040919091013590565b828152604060208201526000610f7b6040830184610e5c565b949350505050565b600060208284031215610f9557600080fd5b5035919050565b60008060408385031215610faf57600080fd5b8235610fba81610ec3565b91506020830135610fca81610ec3565b809150509250929050565b600181811c90821680610fe957607f821691505b6020821081141561100a57634e487b7160e01b600052602260045260246000fd5b50919050565b6020808252602e908201527f4f6e6c792074686520636f6e7472616374206f776e65722063616e2063616c6c60408201526d103a3434b990333ab731ba34b7b760911b606082015260800190565b634e487b7160e01b600052601160045260246000fd5b6000828210156110865761108661105e565b500390565b634e487b7160e01b600052603260045260246000fd5b60006000198214156110b5576110b561105e565b5060010190565b600082198211156110cf576110cf61105e565b500190565b634e487b7160e01b600052603160045260246000fd5b60008160001904831182151516156111045761110461105e565b50029056fea2646970667358221220edfa1b5d22bcc29155676c1c0b9dd99568688914fa7d8bdcb9adebb7d17bbbeb64736f6c634300080c0033",
  "linkReferences": {},
  "deployedLinkReferences": {}
}