{
  "_format": "hh-sol-artifact-1",
  "contractName": "DummyUSDTether",
  "sourceName": "contracts/dev/dummy/DummyUSDTether.sol",
  "abi": [
    {
      "inputs": [],
      "stateMutability": "nonpayable",
      "type": "constructor"
    },
    {
      "anonymous": false,
      "inputs": [
        {
          "indexed": true,
          "internalType": "address",
          "name": "owner",
          "type": "address"
        },
        {
          "indexed": true,
          "internalType": "address",
          "name": "spender",
          "type": "address"
        },
        {
          "indexed": false,
          "internalType": "uint256",
          "name": "value",
          "type": "uint256"
        }
      ],
      "name": "Approval",
      "type": "event"
    },
    {
      "anonymous": false,
      "inputs": [
        {
          "indexed": true,
          "internalType": "address",
          "name": "from",
          "type": "address"
        },
        {
          "indexed": true,
          "internalType": "uint256",
          "name": "amount",
          "type": "uint256"
        }
      ],
      "name": "Deposit",
      "type": "event"
    },
    {
      "anonymous": false,
      "inputs": [
        {
          "indexed": true,
          "internalType": "address",
          "name": "to",
          "type": "address"
        },
        {
          "indexed": true,
          "internalType": "uint256",
          "name": "amount",
          "type": "uint256"
        }
      ],
      "name": "MintingSuccessfull",
      "type": "event"
    },
    {
      "anonymous": false,
      "inputs": [
        {
          "indexed": true,
          "internalType": "address",
          "name": "previousOwner",
          "type": "address"
        },
        {
          "indexed": true,
          "internalType": "address",
          "name": "newOwner",
          "type": "address"
        }
      ],
      "name": "OwnershipTransferred",
      "type": "event"
    },
    {
      "anonymous": false,
      "inputs": [
        {
          "indexed": true,
          "internalType": "bytes32",
          "name": "role",
          "type": "bytes32"
        },
        {
          "indexed": true,
          "internalType": "bytes32",
          "name": "previousAdminRole",
          "type": "bytes32"
        },
        {
          "indexed": true,
          "internalType": "bytes32",
          "name": "newAdminRole",
          "type": "bytes32"
        }
      ],
      "name": "RoleAdminChanged",
      "type": "event"
    },
    {
      "anonymous": false,
      "inputs": [
        {
          "indexed": true,
          "internalType": "bytes32",
          "name": "role",
          "type": "bytes32"
        },
        {
          "indexed": true,
          "internalType": "address",
          "name": "account",
          "type": "address"
        },
        {
          "indexed": true,
          "internalType": "address",
          "name": "sender",
          "type": "address"
        }
      ],
      "name": "RoleGranted",
      "type": "event"
    },
    {
      "anonymous": false,
      "inputs": [
        {
          "indexed": true,
          "internalType": "bytes32",
          "name": "role",
          "type": "bytes32"
        },
        {
          "indexed": true,
          "internalType": "address",
          "name": "account",
          "type": "address"
        },
        {
          "indexed": true,
          "internalType": "address",
          "name": "sender",
          "type": "address"
        }
      ],
      "name": "RoleRevoked",
      "type": "event"
    },
    {
      "anonymous": false,
      "inputs": [
        {
          "indexed": false,
          "internalType": "string",
          "name": "",
          "type": "string"
        }
      ],
      "name": "Timelapse",
      "type": "event"
    },
    {
      "anonymous": false,
      "inputs": [
        {
          "indexed": true,
          "internalType": "address",
          "name": "from",
          "type": "address"
        },
        {
          "indexed": true,
          "internalType": "address",
          "name": "to",
          "type": "address"
        },
        {
          "indexed": false,
          "internalType": "uint256",
          "name": "value",
          "type": "uint256"
        }
      ],
      "name": "Transfer",
      "type": "event"
    },
    {
      "inputs": [],
      "name": "DEFAULT_ADMIN_ROLE",
      "outputs": [
        {
          "internalType": "bytes32",
          "name": "",
          "type": "bytes32"
        }
      ],
      "stateMutability": "view",
      "type": "function"
    },
    {
      "inputs": [],
      "name": "MAX_FAUCET_TOKEN_TRANSFER",
      "outputs": [
        {
          "internalType": "uint32",
          "name": "",
          "type": "uint32"
        }
      ],
      "stateMutability": "view",
      "type": "function"
    },
    {
      "inputs": [],
      "name": "USER_ROLE",
      "outputs": [
        {
          "internalType": "bytes32",
          "name": "",
          "type": "bytes32"
        }
      ],
      "stateMutability": "view",
      "type": "function"
    },
    {
      "inputs": [
        {
          "internalType": "address",
          "name": "grantAdminAddress",
          "type": "address"
        }
      ],
      "name": "addAdmin",
      "outputs": [],
      "stateMutability": "nonpayable",
      "type": "function"
    },
    {
      "inputs": [
        {
          "internalType": "address",
          "name": "grantUserAddressRole",
          "type": "address"
        }
      ],
      "name": "addUser",
      "outputs": [],
      "stateMutability": "nonpayable",
      "type": "function"
    },
    {
      "inputs": [
        {
          "internalType": "address",
          "name": "owner",
          "type": "address"
        },
        {
          "internalType": "address",
          "name": "spender",
          "type": "address"
        }
      ],
      "name": "allowance",
      "outputs": [
        {
          "internalType": "uint256",
          "name": "",
          "type": "uint256"
        }
      ],
      "stateMutability": "view",
      "type": "function"
    },
    {
      "inputs": [
        {
          "internalType": "address",
          "name": "spender",
          "type": "address"
        },
        {
          "internalType": "uint256",
          "name": "amount",
          "type": "uint256"
        }
      ],
      "name": "approve",
      "outputs": [
        {
          "internalType": "bool",
          "name": "",
          "type": "bool"
        }
      ],
      "stateMutability": "nonpayable",
      "type": "function"
    },
    {
      "inputs": [
        {
          "internalType": "address",
          "name": "account",
          "type": "address"
        }
      ],
      "name": "balanceOf",
      "outputs": [
        {
          "internalType": "uint256",
          "name": "",
          "type": "uint256"
        }
      ],
      "stateMutability": "view",
      "type": "function"
    },
    {
      "inputs": [
        {
          "internalType": "address",
          "name": "",
          "type": "address"
        }
      ],
      "name": "checkWhitelist",
      "outputs": [
        {
          "internalType": "bool",
          "name": "",
          "type": "bool"
        }
      ],
      "stateMutability": "view",
      "type": "function"
    },
    {
      "inputs": [],
      "name": "decimals",
      "outputs": [
        {
          "internalType": "uint8",
          "name": "",
          "type": "uint8"
        }
      ],
      "stateMutability": "pure",
      "type": "function"
    },
    {
      "inputs": [
        {
          "internalType": "address",
          "name": "spender",
          "type": "address"
        },
        {
          "internalType": "uint256",
          "name": "subtractedValue",
          "type": "uint256"
        }
      ],
      "name": "decreaseAllowance",
      "outputs": [
        {
          "internalType": "bool",
          "name": "",
          "type": "bool"
        }
      ],
      "stateMutability": "nonpayable",
      "type": "function"
    },
    {
      "inputs": [
        {
          "internalType": "bytes32",
          "name": "role",
          "type": "bytes32"
        }
      ],
      "name": "getRoleAdmin",
      "outputs": [
        {
          "internalType": "bytes32",
          "name": "",
          "type": "bytes32"
        }
      ],
      "stateMutability": "view",
      "type": "function"
    },
    {
      "inputs": [
        {
          "internalType": "bytes32",
          "name": "role",
          "type": "bytes32"
        },
        {
          "internalType": "address",
          "name": "account",
          "type": "address"
        }
      ],
      "name": "grantRole",
      "outputs": [],
      "stateMutability": "nonpayable",
      "type": "function"
    },
    {
      "inputs": [
        {
          "internalType": "bytes32",
          "name": "role",
          "type": "bytes32"
        },
        {
          "internalType": "address",
          "name": "account",
          "type": "address"
        }
      ],
      "name": "hasRole",
      "outputs": [
        {
          "internalType": "bool",
          "name": "",
          "type": "bool"
        }
      ],
      "stateMutability": "view",
      "type": "function"
    },
    {
      "inputs": [
        {
          "internalType": "address",
          "name": "spender",
          "type": "address"
        },
        {
          "internalType": "uint256",
          "name": "addedValue",
          "type": "uint256"
        }
      ],
      "name": "increaseAllowance",
      "outputs": [
        {
          "internalType": "bool",
          "name": "",
          "type": "bool"
        }
      ],
      "stateMutability": "nonpayable",
      "type": "function"
    },
    {
      "inputs": [
        {
          "internalType": "address",
          "name": "adminAddress",
          "type": "address"
        }
      ],
      "name": "isAdmin",
      "outputs": [
        {
          "internalType": "bool",
          "name": "",
          "type": "bool"
        }
      ],
      "stateMutability": "view",
      "type": "function"
    },
    {
      "inputs": [
        {
          "internalType": "address",
          "name": "checkUserAddressRole",
          "type": "address"
        }
      ],
      "name": "isUser",
      "outputs": [
        {
          "internalType": "bool",
          "name": "",
          "type": "bool"
        }
      ],
      "stateMutability": "view",
      "type": "function"
    },
    {
      "inputs": [
        {
          "internalType": "address",
          "name": "_to",
          "type": "address"
        },
        {
          "internalType": "uint256",
          "name": "amount",
          "type": "uint256"
        }
      ],
      "name": "mint",
      "outputs": [],
      "stateMutability": "nonpayable",
      "type": "function"
    },
    {
      "inputs": [],
      "name": "name",
      "outputs": [
        {
          "internalType": "string",
          "name": "",
          "type": "string"
        }
      ],
      "stateMutability": "view",
      "type": "function"
    },
    {
      "inputs": [
        {
          "internalType": "address",
          "name": "",
          "type": "address"
        }
      ],
      "name": "nextAccessTime",
      "outputs": [
        {
          "internalType": "uint256",
          "name": "",
          "type": "uint256"
        }
      ],
      "stateMutability": "view",
      "type": "function"
    },
    {
      "inputs": [],
      "name": "owner",
      "outputs": [
        {
          "internalType": "address",
          "name": "",
          "type": "address"
        }
      ],
      "stateMutability": "view",
      "type": "function"
    },
    {
      "inputs": [
        {
          "internalType": "address",
          "name": "removeUserAddressRole",
          "type": "address"
        }
      ],
      "name": "removeUser",
      "outputs": [],
      "stateMutability": "nonpayable",
      "type": "function"
    },
    {
      "inputs": [],
      "name": "renounceAdmin",
      "outputs": [],
      "stateMutability": "nonpayable",
      "type": "function"
    },
    {
      "inputs": [],
      "name": "renounceOwnership",
      "outputs": [],
      "stateMutability": "nonpayable",
      "type": "function"
    },
    {
      "inputs": [
        {
          "internalType": "bytes32",
          "name": "role",
          "type": "bytes32"
        },
        {
          "internalType": "address",
          "name": "account",
          "type": "address"
        }
      ],
      "name": "renounceRole",
      "outputs": [],
      "stateMutability": "nonpayable",
      "type": "function"
    },
    {
      "inputs": [
        {
          "internalType": "bytes32",
          "name": "role",
          "type": "bytes32"
        },
        {
          "internalType": "address",
          "name": "account",
          "type": "address"
        }
      ],
      "name": "revokeRole",
      "outputs": [],
      "stateMutability": "nonpayable",
      "type": "function"
    },
    {
      "inputs": [
        {
          "internalType": "uint256",
          "name": "newUserAddressLockTime",
          "type": "uint256"
        }
      ],
      "name": "setLockTime",
      "outputs": [],
      "stateMutability": "nonpayable",
      "type": "function"
    },
    {
      "inputs": [
        {
          "internalType": "bytes4",
          "name": "interfaceId",
          "type": "bytes4"
        }
      ],
      "name": "supportsInterface",
      "outputs": [
        {
          "internalType": "bool",
          "name": "",
          "type": "bool"
        }
      ],
      "stateMutability": "view",
      "type": "function"
    },
    {
      "inputs": [],
      "name": "symbol",
      "outputs": [
        {
          "internalType": "string",
          "name": "",
          "type": "string"
        }
      ],
      "stateMutability": "view",
      "type": "function"
    },
    {
      "inputs": [],
      "name": "totalSupply",
      "outputs": [
        {
          "internalType": "uint256",
          "name": "",
          "type": "uint256"
        }
      ],
      "stateMutability": "view",
      "type": "function"
    },
    {
      "inputs": [
        {
          "internalType": "address",
          "name": "to",
          "type": "address"
        },
        {
          "internalType": "uint256",
          "name": "amount",
          "type": "uint256"
        }
      ],
      "name": "transfer",
      "outputs": [
        {
          "internalType": "bool",
          "name": "",
          "type": "bool"
        }
      ],
      "stateMutability": "nonpayable",
      "type": "function"
    },
    {
      "inputs": [
        {
          "internalType": "address",
          "name": "to",
          "type": "address"
        },
        {
          "internalType": "uint256",
          "name": "amount",
          "type": "uint256"
        }
      ],
      "name": "transferFaucetToken",
      "outputs": [],
      "stateMutability": "nonpayable",
      "type": "function"
    },
    {
      "inputs": [
        {
          "internalType": "address",
          "name": "from",
          "type": "address"
        },
        {
          "internalType": "address",
          "name": "to",
          "type": "address"
        },
        {
          "internalType": "uint256",
          "name": "amount",
          "type": "uint256"
        }
      ],
      "name": "transferFrom",
      "outputs": [
        {
          "internalType": "bool",
          "name": "",
          "type": "bool"
        }
      ],
      "stateMutability": "nonpayable",
      "type": "function"
    },
    {
      "inputs": [
        {
          "internalType": "address",
          "name": "newOwner",
          "type": "address"
        }
      ],
      "name": "transferOwnership",
      "outputs": [],
      "stateMutability": "nonpayable",
      "type": "function"
    },
    {
      "inputs": [],
      "name": "userAddressLockTime",
      "outputs": [
        {
          "internalType": "uint256",
          "name": "",
          "type": "uint256"
        }
      ],
      "stateMutability": "view",
      "type": "function"
    }
  ],
  "bytecode": "0x6080604052620151806007553480156200001857600080fd5b50604080518082018252601281527155534420546574686572202844756d6d792960701b6020808301918252835180850190945260048452631554d11560e21b9084015281519192916200006f9160039162000335565b5080516200008590600490602084019062000335565b505050620000a26200009c620000f860201b60201c565b620000fc565b620000af6000336200014e565b620000dc7f2db9fd3d099848027c2383d0a083396f6c41510d7acfd92adc99b6cffcf31e9660006200015e565b620000f23369152d02c7e14af6800000620001a9565b6200043f565b3390565b600580546001600160a01b038381166001600160a01b0319831681179093556040519116919082907f8be0079c531659141344cd1fd0a4f28419497f9722a3daafe3b4186f6b6457e090600090a35050565b6200015a828262000291565b5050565b600082815260066020526040808220600101805490849055905190918391839186917fbd79b86ffe0ab8e8776151514217cd7cacd52c909f66475c3af44e129f0b00ff9190a4505050565b6001600160a01b038216620002045760405162461bcd60e51b815260206004820152601f60248201527f45524332303a206d696e7420746f20746865207a65726f206164647265737300604482015260640160405180910390fd5b8060026000828254620002189190620003db565b90915550506001600160a01b0382166000908152602081905260408120805483929062000247908490620003db565b90915550506040518181526001600160a01b038316906000907fddf252ad1be2c89b69c2b068fc378daa952ba7f163c4a11628f55a4df523b3ef9060200160405180910390a35050565b60008281526006602090815260408083206001600160a01b038516845290915290205460ff166200015a5760008281526006602090815260408083206001600160a01b03851684529091529020805460ff19166001179055620002f13390565b6001600160a01b0316816001600160a01b0316837f2f8788117e7eff1d82e926ec794901d17c78024a50270940304540a733656f0d60405160405180910390a45050565b828054620003439062000402565b90600052602060002090601f016020900481019282620003675760008555620003b2565b82601f106200038257805160ff1916838001178555620003b2565b82800160010185558215620003b2579182015b82811115620003b257825182559160200191906001019062000395565b50620003c0929150620003c4565b5090565b5b80821115620003c05760008155600101620003c5565b60008219821115620003fd57634e487b7160e01b600052601160045260246000fd5b500190565b600181811c908216806200041757607f821691505b602082108114156200043957634e487b7160e01b600052602260045260246000fd5b50919050565b61163f806200044f6000396000f3fe608060405234801561001057600080fd5b50600436106101d15760003560e01c806354b7b0e711610105578063985751881161009d578063985751881461040b578063a217fddf1461041e578063a457c2d714610426578063a9059cbb14610439578063ae04d45d1461044c578063d547741f1461045f578063dd62ed3e14610472578063f2fde38b14610485578063f418e3eb1461049857600080fd5b806354b7b0e714610360578063704802751461036957806370a082311461037c578063715018a6146103a55780637ac5b7b2146103ad5780638bad0c0a146103cd5780638da5cb5b146103d557806391d14854146103f057806395d89b411461040357600080fd5b806324d7806c1161017857806324d7806c146102aa5780632f2ff15d146102bd578063313ce567146102d257806336568abe146102e157806339509351146102f457806340c10f19146103075780634209fff11461031a578063421b2d8b1461032d578063516fad0a1461034057600080fd5b806301ffc9a7146101d657806306fdde03146101fe578063095ea7b314610213578063131191611461022657806318160ddd146102495780631950c2181461025157806323b872dd14610274578063248a9ca314610287575b600080fd5b6101e96101e43660046112b6565b6104ab565b60405190151581526020015b60405180910390f35b6102066104e2565b6040516101f5919061130c565b6101e961022136600461135b565b610574565b61023b6000805160206115ea83398151915281565b6040519081526020016101f5565b60025461023b565b6101e961025f366004611385565b60096020526000908152604090205460ff1681565b6101e96102823660046113a0565b61058c565b61023b6102953660046113dc565b60009081526006602052604090206001015490565b6101e96102b8366004611385565b6105b0565b6102d06102cb3660046113f5565b6105bc565b005b604051600681526020016101f5565b6102d06102ef3660046113f5565b6105e7565b6101e961030236600461135b565b61066a565b6102d061031536600461135b565b6106a9565b6101e9610328366004611385565b610735565b6102d061033b366004611385565b61074f565b61023b61034e366004611385565b60086020526000908152604090205481565b61023b60075481565b6102d0610377366004611385565b61078f565b61023b61038a366004611385565b6001600160a01b031660009081526020819052604090205490565b6102d06107bf565b6103b8633b9aca0081565b60405163ffffffff90911681526020016101f5565b6102d06107f5565b6005546040516001600160a01b0390911681526020016101f5565b6101e96103fe3660046113f5565b610800565b61020661082b565b6102d0610419366004611385565b61083a565b61023b600081565b6101e961043436600461135b565b610877565b6101e961044736600461135b565b610909565b6102d061045a3660046113dc565b610917565b6102d061046d3660046113f5565b610928565b61023b610480366004611421565b61094e565b6102d0610493366004611385565b610979565b6102d06104a636600461135b565b610a11565b60006001600160e01b03198216637965db0b60e01b14806104dc57506301ffc9a760e01b6001600160e01b03198316145b92915050565b6060600380546104f19061144b565b80601f016020809104026020016040519081016040528092919081815260200182805461051d9061144b565b801561056a5780601f1061053f5761010080835404028352916020019161056a565b820191906000526020600020905b81548152906001019060200180831161054d57829003601f168201915b5050505050905090565b600033610582818585610b25565b5060019392505050565b60003361059a858285610c49565b6105a5858585610cc3565b506001949350505050565b60006104dc8183610800565b6000828152600660205260409020600101546105d88133610e91565b6105e28383610ef5565b505050565b6001600160a01b038116331461065c5760405162461bcd60e51b815260206004820152602f60248201527f416363657373436f6e74726f6c3a2063616e206f6e6c792072656e6f756e636560448201526e103937b632b9903337b91039b2b63360891b60648201526084015b60405180910390fd5b6106668282610f7b565b5050565b3360008181526001602090815260408083206001600160a01b038716845290915281205490919061058290829086906106a490879061149c565b610b25565b6106b233610735565b6106f55760405162461bcd60e51b81526020600482015260146024820152732932b9ba3934b1ba32b2103a37903ab9b2b9399760611b6044820152606401610653565b60405181906001600160a01b038416907fc58c3f569bd2045ed80ab75a0b4829abd38419dc95cf68a49d51e65ac9b4f8cc90600090a36106668282610fe2565b60006104dc6000805160206115ea83398151915283610800565b610758336105b0565b6107745760405162461bcd60e51b8152600401610653906114b4565b61078c6000805160206115ea833981519152826105bc565b50565b610798336105b0565b6107b45760405162461bcd60e51b8152600401610653906114b4565b61078c6000826105bc565b6005546001600160a01b031633146107e95760405162461bcd60e51b8152600401610653906114e3565b6107f360006110c1565b565b6107f36000336105e7565b60009182526006602090815260408084206001600160a01b0393909316845291905290205460ff1690565b6060600480546104f19061144b565b610843336105b0565b61085f5760405162461bcd60e51b8152600401610653906114b4565b61078c6000805160206115ea83398151915282610928565b3360008181526001602090815260408083206001600160a01b0387168452909152812054909190838110156108fc5760405162461bcd60e51b815260206004820152602560248201527f45524332303a2064656372656173656420616c6c6f77616e63652062656c6f77604482015264207a65726f60d81b6064820152608401610653565b6105a58286868403610b25565b600033610582818585610cc3565b61092281603c611518565b60075550565b6000828152600660205260409020600101546109448133610e91565b6105e28383610f7b565b6001600160a01b03918216600090815260016020908152604080832093909416825291909152205490565b6005546001600160a01b031633146109a35760405162461bcd60e51b8152600401610653906114e3565b6001600160a01b038116610a085760405162461bcd60e51b815260206004820152602660248201527f4f776e61626c653a206e6577206f776e657220697320746865207a65726f206160448201526564647265737360d01b6064820152608401610653565b61078c816110c1565b6001600160a01b038216610a565760405162461bcd60e51b815260206004820152600c60248201526b1e995c9bc81858d8dbdd5b9d60a21b6044820152606401610653565b633b9aca00811115610a9a5760405162461bcd60e51b815260206004820152600d60248201526c0616d6f756e74203c3d3130303609c1b6044820152606401610653565b6001600160a01b038216600090815260086020526040902054421015610af55760405162461bcd60e51b815260206004820152601060248201526f1d1a5b59481b9bdd08195b185c1cd95960821b6044820152606401610653565b600754610b02904261149c565b6001600160a01b0383166000908152600860205260409020556105e28282610909565b6001600160a01b038316610b875760405162461bcd60e51b8152602060048201526024808201527f45524332303a20617070726f76652066726f6d20746865207a65726f206164646044820152637265737360e01b6064820152608401610653565b6001600160a01b038216610be85760405162461bcd60e51b815260206004820152602260248201527f45524332303a20617070726f766520746f20746865207a65726f206164647265604482015261737360f01b6064820152608401610653565b6001600160a01b0383811660008181526001602090815260408083209487168084529482529182902085905590518481527f8c5be1e5ebec7d5bd14f71427d1e84f3dd0314c0f7b2291e5b200ac8c7c3b925910160405180910390a3505050565b6000610c55848461094e565b90506000198114610cbd5781811015610cb05760405162461bcd60e51b815260206004820152601d60248201527f45524332303a20696e73756666696369656e7420616c6c6f77616e63650000006044820152606401610653565b610cbd8484848403610b25565b50505050565b6001600160a01b038316610d275760405162461bcd60e51b815260206004820152602560248201527f45524332303a207472616e736665722066726f6d20746865207a65726f206164604482015264647265737360d81b6064820152608401610653565b6001600160a01b038216610d895760405162461bcd60e51b815260206004820152602360248201527f45524332303a207472616e7366657220746f20746865207a65726f206164647260448201526265737360e81b6064820152608401610653565b6001600160a01b03831660009081526020819052604090205481811015610e015760405162461bcd60e51b815260206004820152602660248201527f45524332303a207472616e7366657220616d6f756e7420657863656564732062604482015265616c616e636560d01b6064820152608401610653565b6001600160a01b03808516600090815260208190526040808220858503905591851681529081208054849290610e3890849061149c565b92505081905550826001600160a01b0316846001600160a01b03167fddf252ad1be2c89b69c2b068fc378daa952ba7f163c4a11628f55a4df523b3ef84604051610e8491815260200190565b60405180910390a3610cbd565b610e9b8282610800565b61066657610eb3816001600160a01b03166014611113565b610ebe836020611113565b604051602001610ecf929190611537565b60408051601f198184030181529082905262461bcd60e51b82526106539160040161130c565b610eff8282610800565b6106665760008281526006602090815260408083206001600160a01b03851684529091529020805460ff19166001179055610f373390565b6001600160a01b0316816001600160a01b0316837f2f8788117e7eff1d82e926ec794901d17c78024a50270940304540a733656f0d60405160405180910390a45050565b610f858282610800565b156106665760008281526006602090815260408083206001600160a01b0385168085529252808320805460ff1916905551339285917ff6391f5c32d9c69d2a47ea670b442974b53935d1edc7fd64eb21e047a839171b9190a45050565b6001600160a01b0382166110385760405162461bcd60e51b815260206004820152601f60248201527f45524332303a206d696e7420746f20746865207a65726f2061646472657373006044820152606401610653565b806002600082825461104a919061149c565b90915550506001600160a01b0382166000908152602081905260408120805483929061107790849061149c565b90915550506040518181526001600160a01b038316906000907fddf252ad1be2c89b69c2b068fc378daa952ba7f163c4a11628f55a4df523b3ef9060200160405180910390a35050565b600580546001600160a01b038381166001600160a01b0319831681179093556040519116919082907f8be0079c531659141344cd1fd0a4f28419497f9722a3daafe3b4186f6b6457e090600090a35050565b60606000611122836002611518565b61112d90600261149c565b67ffffffffffffffff811115611145576111456115a6565b6040519080825280601f01601f19166020018201604052801561116f576020820181803683370190505b509050600360fc1b8160008151811061118a5761118a6115bc565b60200101906001600160f81b031916908160001a905350600f60fb1b816001815181106111b9576111b96115bc565b60200101906001600160f81b031916908160001a90535060006111dd846002611518565b6111e890600161149c565b90505b6001811115611260576f181899199a1a9b1b9c1cb0b131b232b360811b85600f166010811061121c5761121c6115bc565b1a60f81b828281518110611232576112326115bc565b60200101906001600160f81b031916908160001a90535060049490941c93611259816115d2565b90506111eb565b5083156112af5760405162461bcd60e51b815260206004820181905260248201527f537472696e67733a20686578206c656e67746820696e73756666696369656e746044820152606401610653565b9392505050565b6000602082840312156112c857600080fd5b81356001600160e01b0319811681146112af57600080fd5b60005b838110156112fb5781810151838201526020016112e3565b83811115610cbd5750506000910152565b602081526000825180602084015261132b8160408501602087016112e0565b601f01601f19169190910160400192915050565b80356001600160a01b038116811461135657600080fd5b919050565b6000806040838503121561136e57600080fd5b6113778361133f565b946020939093013593505050565b60006020828403121561139757600080fd5b6112af8261133f565b6000806000606084860312156113b557600080fd5b6113be8461133f565b92506113cc6020850161133f565b9150604084013590509250925092565b6000602082840312156113ee57600080fd5b5035919050565b6000806040838503121561140857600080fd5b823591506114186020840161133f565b90509250929050565b6000806040838503121561143457600080fd5b61143d8361133f565b91506114186020840161133f565b600181811c9082168061145f57607f821691505b6020821081141561148057634e487b7160e01b600052602260045260246000fd5b50919050565b634e487b7160e01b600052601160045260246000fd5b600082198211156114af576114af611486565b500190565b6020808252601590820152742932b9ba3934b1ba32b2103a379030b236b4b7399760591b604082015260600190565b6020808252818101527f4f776e61626c653a2063616c6c6572206973206e6f7420746865206f776e6572604082015260600190565b600081600019048311821515161561153257611532611486565b500290565b76020b1b1b2b9b9a1b7b73a3937b61d1030b1b1b7bab73a1604d1b8152600083516115698160178501602088016112e0565b7001034b99036b4b9b9b4b733903937b6329607d1b601791840191820152835161159a8160288401602088016112e0565b01602801949350505050565b634e487b7160e01b600052604160045260246000fd5b634e487b7160e01b600052603260045260246000fd5b6000816115e1576115e1611486565b50600019019056fe2db9fd3d099848027c2383d0a083396f6c41510d7acfd92adc99b6cffcf31e96a26469706673582212207860b3dcff210b53eac3c9962628b8f04bb285c04a82eed7e10b1313903526b864736f6c634300080c0033",
  "linkReferences": {},
  "deployedLinkReferences": {}
}