{
  "_format": "hh-sol-artifact-1",
  "contractName": "DummyUSDTether",
  "sourceName": "contracts/dev/dummy/DummyUSDTether.sol",
  "abi": [
    {
      "inputs": [],
      "stateMutability": "nonpayable",
      "type": "constructor"
    },
    {
      "anonymous": false,
      "inputs": [
        {
          "indexed": true,
          "internalType": "address",
          "name": "owner",
          "type": "address"
        },
        {
          "indexed": true,
          "internalType": "address",
          "name": "spender",
          "type": "address"
        },
        {
          "indexed": false,
          "internalType": "uint256",
          "name": "value",
          "type": "uint256"
        }
      ],
      "name": "Approval",
      "type": "event"
    },
    {
      "anonymous": false,
      "inputs": [
        {
          "indexed": true,
          "internalType": "address",
          "name": "from",
          "type": "address"
        },
        {
          "indexed": true,
          "internalType": "uint256",
          "name": "amount",
          "type": "uint256"
        }
      ],
      "name": "Deposit",
      "type": "event"
    },
    {
      "anonymous": false,
      "inputs": [
        {
          "indexed": false,
          "internalType": "string",
          "name": "",
          "type": "string"
        }
      ],
      "name": "Timelapse",
      "type": "event"
    },
    {
      "anonymous": false,
      "inputs": [
        {
          "indexed": true,
          "internalType": "address",
          "name": "from",
          "type": "address"
        },
        {
          "indexed": true,
          "internalType": "address",
          "name": "to",
          "type": "address"
        },
        {
          "indexed": false,
          "internalType": "uint256",
          "name": "value",
          "type": "uint256"
        }
      ],
      "name": "Transfer",
      "type": "event"
    },
    {
      "anonymous": false,
      "inputs": [
        {
          "indexed": true,
          "internalType": "address",
          "name": "to",
          "type": "address"
        },
        {
          "indexed": true,
          "internalType": "uint256",
          "name": "amount",
          "type": "uint256"
        }
      ],
      "name": "Withdrawal",
      "type": "event"
    },
    {
      "inputs": [
        {
          "internalType": "address payable",
          "name": "owners",
          "type": "address"
        }
      ],
      "name": "addOwners",
      "outputs": [
        {
          "internalType": "uint256",
          "name": "",
          "type": "uint256"
        }
      ],
      "stateMutability": "nonpayable",
      "type": "function"
    },
    {
      "inputs": [
        {
          "internalType": "address",
          "name": "owner",
          "type": "address"
        },
        {
          "internalType": "address",
          "name": "spender",
          "type": "address"
        }
      ],
      "name": "allowance",
      "outputs": [
        {
          "internalType": "uint256",
          "name": "",
          "type": "uint256"
        }
      ],
      "stateMutability": "view",
      "type": "function"
    },
    {
      "inputs": [
        {
          "internalType": "address",
          "name": "spender",
          "type": "address"
        },
        {
          "internalType": "uint256",
          "name": "amount",
          "type": "uint256"
        }
      ],
      "name": "approve",
      "outputs": [
        {
          "internalType": "bool",
          "name": "",
          "type": "bool"
        }
      ],
      "stateMutability": "nonpayable",
      "type": "function"
    },
    {
      "inputs": [
        {
          "internalType": "address",
          "name": "account",
          "type": "address"
        }
      ],
      "name": "balanceOf",
      "outputs": [
        {
          "internalType": "uint256",
          "name": "",
          "type": "uint256"
        }
      ],
      "stateMutability": "view",
      "type": "function"
    },
    {
      "inputs": [
        {
          "internalType": "address",
          "name": "_address",
          "type": "address"
        }
      ],
      "name": "checkAddressBalance",
      "outputs": [
        {
          "internalType": "uint256",
          "name": "",
          "type": "uint256"
        }
      ],
      "stateMutability": "view",
      "type": "function"
    },
    {
      "inputs": [
        {
          "internalType": "address",
          "name": "",
          "type": "address"
        }
      ],
      "name": "checkWhitelist",
      "outputs": [
        {
          "internalType": "bool",
          "name": "",
          "type": "bool"
        }
      ],
      "stateMutability": "view",
      "type": "function"
    },
    {
      "inputs": [],
      "name": "decimals",
      "outputs": [
        {
          "internalType": "uint8",
          "name": "",
          "type": "uint8"
        }
      ],
      "stateMutability": "pure",
      "type": "function"
    },
    {
      "inputs": [
        {
          "internalType": "address",
          "name": "spender",
          "type": "address"
        },
        {
          "internalType": "uint256",
          "name": "subtractedValue",
          "type": "uint256"
        }
      ],
      "name": "decreaseAllowance",
      "outputs": [
        {
          "internalType": "bool",
          "name": "",
          "type": "bool"
        }
      ],
      "stateMutability": "nonpayable",
      "type": "function"
    },
    {
      "inputs": [
        {
          "internalType": "uint256",
          "name": "_pos",
          "type": "uint256"
        }
      ],
      "name": "deleteUserWhitelist",
      "outputs": [
        {
          "internalType": "bool",
          "name": "",
          "type": "bool"
        }
      ],
      "stateMutability": "nonpayable",
      "type": "function"
    },
    {
      "inputs": [],
      "name": "getBalance",
      "outputs": [
        {
          "internalType": "uint256",
          "name": "",
          "type": "uint256"
        }
      ],
      "stateMutability": "view",
      "type": "function"
    },
    {
      "inputs": [
        {
          "internalType": "address",
          "name": "_addr",
          "type": "address"
        }
      ],
      "name": "getUserId",
      "outputs": [
        {
          "internalType": "int256",
          "name": "",
          "type": "int256"
        },
        {
          "internalType": "string",
          "name": "",
          "type": "string"
        }
      ],
      "stateMutability": "view",
      "type": "function"
    },
    {
      "inputs": [
        {
          "internalType": "address",
          "name": "spender",
          "type": "address"
        },
        {
          "internalType": "uint256",
          "name": "addedValue",
          "type": "uint256"
        }
      ],
      "name": "increaseAllowance",
      "outputs": [
        {
          "internalType": "bool",
          "name": "",
          "type": "bool"
        }
      ],
      "stateMutability": "nonpayable",
      "type": "function"
    },
    {
      "inputs": [],
      "name": "isAddressWhilelisted",
      "outputs": [
        {
          "internalType": "bool",
          "name": "",
          "type": "bool"
        }
      ],
      "stateMutability": "view",
      "type": "function"
    },
    {
      "inputs": [
        {
          "internalType": "address",
          "name": "forwarder",
          "type": "address"
        }
      ],
      "name": "isTrustedForwarder",
      "outputs": [
        {
          "internalType": "bool",
          "name": "",
          "type": "bool"
        }
      ],
      "stateMutability": "view",
      "type": "function"
    },
    {
      "inputs": [],
      "name": "lockTime",
      "outputs": [
        {
          "internalType": "uint256",
          "name": "",
          "type": "uint256"
        }
      ],
      "stateMutability": "view",
      "type": "function"
    },
    {
      "inputs": [
        {
          "internalType": "uint256",
          "name": "amount",
          "type": "uint256"
        }
      ],
      "name": "mint",
      "outputs": [],
      "stateMutability": "nonpayable",
      "type": "function"
    },
    {
      "inputs": [],
      "name": "name",
      "outputs": [
        {
          "internalType": "string",
          "name": "",
          "type": "string"
        }
      ],
      "stateMutability": "view",
      "type": "function"
    },
    {
      "inputs": [
        {
          "internalType": "address",
          "name": "",
          "type": "address"
        }
      ],
      "name": "nextAccessTime",
      "outputs": [
        {
          "internalType": "uint256",
          "name": "",
          "type": "uint256"
        }
      ],
      "stateMutability": "view",
      "type": "function"
    },
    {
      "inputs": [
        {
          "internalType": "uint256",
          "name": "amount",
          "type": "uint256"
        }
      ],
      "name": "setLockTime",
      "outputs": [],
      "stateMutability": "nonpayable",
      "type": "function"
    },
    {
      "inputs": [
        {
          "internalType": "uint256",
          "name": "_timeinMinutes",
          "type": "uint256"
        }
      ],
      "name": "setTimelap",
      "outputs": [
        {
          "internalType": "bool",
          "name": "",
          "type": "bool"
        }
      ],
      "stateMutability": "nonpayable",
      "type": "function"
    },
    {
      "inputs": [],
      "name": "symbol",
      "outputs": [
        {
          "internalType": "string",
          "name": "",
          "type": "string"
        }
      ],
      "stateMutability": "view",
      "type": "function"
    },
    {
      "inputs": [],
      "name": "totalSupply",
      "outputs": [
        {
          "internalType": "uint256",
          "name": "",
          "type": "uint256"
        }
      ],
      "stateMutability": "view",
      "type": "function"
    },
    {
      "inputs": [
        {
          "internalType": "address",
          "name": "to",
          "type": "address"
        },
        {
          "internalType": "uint256",
          "name": "amount",
          "type": "uint256"
        }
      ],
      "name": "transfer",
      "outputs": [
        {
          "internalType": "bool",
          "name": "",
          "type": "bool"
        }
      ],
      "stateMutability": "nonpayable",
      "type": "function"
    },
    {
      "inputs": [
        {
          "internalType": "address",
          "name": "from",
          "type": "address"
        },
        {
          "internalType": "address",
          "name": "to",
          "type": "address"
        },
        {
          "internalType": "uint256",
          "name": "amount",
          "type": "uint256"
        }
      ],
      "name": "transferFrom",
      "outputs": [
        {
          "internalType": "bool",
          "name": "",
          "type": "bool"
        }
      ],
      "stateMutability": "nonpayable",
      "type": "function"
    },
    {
      "inputs": [
        {
          "internalType": "address",
          "name": "to",
          "type": "address"
        },
        {
          "internalType": "uint256",
          "name": "amount",
          "type": "uint256"
        }
      ],
      "name": "transfers",
      "outputs": [],
      "stateMutability": "nonpayable",
      "type": "function"
    }
  ],
  "bytecode": "0x62015180600655603c60095560c06040526005546001600160a01b031660a09081526200003190600b9060016200021f565b503480156200003f57600080fd5b50604080518082018252601281527155534420546574686572202844756d6d792960701b6020808301918252835180850190945260048452631554d11560e21b90840152815173bf175fcc7086b4f9bd59d5eae8ea67b8f940de0d9391620000ab916003919062000289565b508051620000c190600490602084019062000289565b5050506001600160a01b031660805260058054336001600160a01b03199182168117909255426008556000828152600a60205260408120805460ff19166001908117909155600b805491820181559091527f0175b7a638427703f0dbe7bb9bbf987a2551717b34e79f33b5b1008d1fa01db901805490911682179055620001539069152d02c7e14af680000062000159565b62000381565b6001600160a01b038216620001b45760405162461bcd60e51b815260206004820152601f60248201527f45524332303a206d696e7420746f20746865207a65726f206164647265737300604482015260640160405180910390fd5b8060026000828254620001c891906200031d565b90915550506001600160a01b038216600081815260208181526040808320805486019055518481527fddf252ad1be2c89b69c2b068fc378daa952ba7f163c4a11628f55a4df523b3ef910160405180910390a35050565b82805482825590600052602060002090810192821562000277579160200282015b828111156200027757825182546001600160a01b0319166001600160a01b0390911617825560209092019160019091019062000240565b506200028592915062000306565b5090565b828054620002979062000344565b90600052602060002090601f016020900481019282620002bb576000855562000277565b82601f10620002d657805160ff191683800117855562000277565b8280016001018555821562000277579182015b8281111562000277578251825591602001919060010190620002e9565b5b8082111562000285576000815560010162000307565b600082198211156200033f57634e487b7160e01b600052601160045260246000fd5b500190565b600181811c908216806200035957607f821691505b602082108114156200037b57634e487b7160e01b600052602260045260246000fd5b50919050565b6080516112186200039d600039600061059701526112186000f3fe608060405234801561001057600080fd5b50600436106101635760003560e01c806353cc580b116100ce57806395d89b411161008757806395d89b41146102f5578063a0712d68146102fd578063a457c2d714610310578063a9059cbb14610323578063ae04d45d14610336578063d351cc5714610349578063dd62ed3e1461035c57600080fd5b806353cc580b14610281578063572b6c051461029457806357b1dbe3146102a75780635dc6e581146102bc5780635f3b1f3b146102cf57806370a08231146102e257600080fd5b806323b872dd1161012057806323b872dd146101f35780632b956ff714610206578063313ce5671461022757806339509351146102365780633fd2eaba14610249578063516fad0a1461026157600080fd5b806306fdde0314610168578063095ea7b3146101865780630d668087146101a957806312065fe0146101c057806318160ddd146101c85780631950c218146101d0575b600080fd5b61017061036f565b60405161017d9190610f82565b60405180910390f35b610199610194366004610fb1565b610401565b604051901515815260200161017d565b6101b260065481565b60405190815260200161017d565b6101b2610423565b6002546101b2565b6101996101de366004610fdd565b600a6020526000908152604090205460ff1681565b610199610201366004610ffa565b610433565b610219610214366004610fdd565b610461565b60405161017d92919061103b565b6040516006815260200161017d565b610199610244366004610fb1565b610558565b336000908152600a602052604090205460ff16610199565b6101b261026f366004610fdd565b60076020526000908152604090205481565b6101b261028f366004610fdd565b610584565b6101996102a2366004610fdd565b610595565b6102ba6102b5366004610fb1565b6105c7565b005b6101996102ca36600461105c565b61070c565b6101b26102dd366004610fdd565b610876565b6101b26102f0366004610fdd565b610911565b61017061092c565b6102ba61030b36600461105c565b61093b565b61019961031e366004610fb1565b6109be565b610199610331366004610fb1565b610a44565b6102ba61034436600461105c565b610a5c565b61019961035736600461105c565b610a97565b6101b261036a366004611075565b610add565b60606003805461037e906110ae565b80601f01602080910402602001604051908101604052809291908181526020018280546103aa906110ae565b80156103f75780601f106103cc576101008083540402835291602001916103f7565b820191906000526020600020905b8154815290600101906020018083116103da57829003601f168201915b5050505050905090565b60008061040c610b08565b9050610419818585610b12565b5060019392505050565b600061042e33610911565b905090565b60008061043e610b08565b905061044b858285610c36565b610456858585610cb0565b506001949350505050565b6005546000906060906001600160a01b0316331461049a5760405162461bcd60e51b8152600401610491906110e9565b60405180910390fd5b60408051808201909152600d81526c6e6f7420617661696c61626c6560981b60208201526000199060005b600b546104d49060019061114d565b81101561054d57856001600160a01b0316600b82815481106104f8576104f8611164565b6000918252602090912001546001600160a01b0316141561053b5780925060405180604001604052806009815260200168617661696c61626c6560b81b81525091505b806105458161117a565b9150506104c5565b509092509050915091565b600080610563610b08565b90506104198185856105758589610add565b61057f9190611195565b610b12565b600061058f82610911565b92915050565b7f00000000000000000000000000000000000000000000000000000000000000006001600160a01b0390811691161490565b6005546001600160a01b031633146105f15760405162461bcd60e51b8152600401610491906110e9565b6001600160a01b0382166106375760405162461bcd60e51b815260206004820152600d60248201526c081e995c9bc81858d8dbdd5b9d609a1b6044820152606401610491565b633b9aca0081111561067b5760405162461bcd60e51b815260206004820152600d60248201526c0616d6f756e74203c3d3130303609c1b6044820152606401610491565b6001600160a01b0382166000908152600760205260409020544210156106d75760405162461bcd60e51b815260206004820152601160248201527003a34b6b2903737ba1032b630b839b2b21607d1b6044820152606401610491565b6006546106e49042611195565b6001600160a01b0383166000908152600760205260409020556107078282610a44565b505050565b6005546000906001600160a01b031633146107395760405162461bcd60e51b8152600401610491906110e9565b60006001600160a01b0316600b838154811061075757610757611164565b6000918252602090912001546001600160a01b031614156107b35760405162461bcd60e51b81526020600482015260166024820152751059191c995cdcc81b9bdd08105d5d1a1bdc9a5e995960521b6044820152606401610491565b600b546000906107c59060019061114d565b90506000600b82815481106107dc576107dc611164565b600091825260209091200154600b80546001600160a01b03909216925082918690811061080b5761080b611164565b9060005260206000200160006101000a8154816001600160a01b0302191690836001600160a01b03160217905550600b80548061084a5761084a6111ad565b600082815260209020600019908201810180546001600160a01b03191690550190555060019392505050565b6005546000906001600160a01b031633146108a35760405162461bcd60e51b8152600401610491906110e9565b50600b8054600180820183557f0175b7a638427703f0dbe7bb9bbf987a2551717b34e79f33b5b1008d1fa01db990910180546001600160a01b0319166001600160a01b039485161790556005549092166000908152600a60205260409020805460ff19169092179091555490565b6001600160a01b031660009081526020819052604090205490565b60606004805461037e906110ae565b336000908152600a602052604090205460ff1615158061096557506005546001600160a01b031633145b6109b15760405162461bcd60e51b815260206004820152601f60248201527f546869732061646472657373206973206e6f742077686974656c6973746564006044820152606401610491565b6109bb3382610e54565b50565b6000806109c9610b08565b905060006109d78286610add565b905083811015610a375760405162461bcd60e51b815260206004820152602560248201527f45524332303a2064656372656173656420616c6c6f77616e63652062656c6f77604482015264207a65726f60d81b6064820152608401610491565b6104568286868403610b12565b600080610a4f610b08565b9050610419818585610cb0565b6005546001600160a01b03163314610a865760405162461bcd60e51b8152600401610491906110e9565b610a9181603c6111c3565b60065550565b6005546000906001600160a01b03163314610ac45760405162461bcd60e51b8152600401610491906110e9565b6000610ad183603c6111c3565b60095550600192915050565b6001600160a01b03918216600090815260016020908152604080832093909416825291909152205490565b600061042e610f13565b6001600160a01b038316610b745760405162461bcd60e51b8152602060048201526024808201527f45524332303a20617070726f76652066726f6d20746865207a65726f206164646044820152637265737360e01b6064820152608401610491565b6001600160a01b038216610bd55760405162461bcd60e51b815260206004820152602260248201527f45524332303a20617070726f766520746f20746865207a65726f206164647265604482015261737360f01b6064820152608401610491565b6001600160a01b0383811660008181526001602090815260408083209487168084529482529182902085905590518481527f8c5be1e5ebec7d5bd14f71427d1e84f3dd0314c0f7b2291e5b200ac8c7c3b925910160405180910390a3505050565b6000610c428484610add565b90506000198114610caa5781811015610c9d5760405162461bcd60e51b815260206004820152601d60248201527f45524332303a20696e73756666696369656e7420616c6c6f77616e63650000006044820152606401610491565b610caa8484848403610b12565b50505050565b6001600160a01b038316610d145760405162461bcd60e51b815260206004820152602560248201527f45524332303a207472616e736665722066726f6d20746865207a65726f206164604482015264647265737360d81b6064820152608401610491565b6001600160a01b038216610d765760405162461bcd60e51b815260206004820152602360248201527f45524332303a207472616e7366657220746f20746865207a65726f206164647260448201526265737360e81b6064820152608401610491565b6001600160a01b03831660009081526020819052604090205481811015610dee5760405162461bcd60e51b815260206004820152602660248201527f45524332303a207472616e7366657220616d6f756e7420657863656564732062604482015265616c616e636560d01b6064820152608401610491565b6001600160a01b03848116600081815260208181526040808320878703905593871680835291849020805487019055925185815290927fddf252ad1be2c89b69c2b068fc378daa952ba7f163c4a11628f55a4df523b3ef910160405180910390a3610caa565b6001600160a01b038216610eaa5760405162461bcd60e51b815260206004820152601f60248201527f45524332303a206d696e7420746f20746865207a65726f2061646472657373006044820152606401610491565b8060026000828254610ebc9190611195565b90915550506001600160a01b038216600081815260208181526040808320805486019055518481527fddf252ad1be2c89b69c2b068fc378daa952ba7f163c4a11628f55a4df523b3ef910160405180910390a35050565b6000610f1e33610595565b15610f30575060131936013560601c90565b503390565b6000815180845260005b81811015610f5b57602081850181015186830182015201610f3f565b81811115610f6d576000602083870101525b50601f01601f19169290920160200192915050565b602081526000610f956020830184610f35565b9392505050565b6001600160a01b03811681146109bb57600080fd5b60008060408385031215610fc457600080fd5b8235610fcf81610f9c565b946020939093013593505050565b600060208284031215610fef57600080fd5b8135610f9581610f9c565b60008060006060848603121561100f57600080fd5b833561101a81610f9c565b9250602084013561102a81610f9c565b929592945050506040919091013590565b8281526040602082015260006110546040830184610f35565b949350505050565b60006020828403121561106e57600080fd5b5035919050565b6000806040838503121561108857600080fd5b823561109381610f9c565b915060208301356110a381610f9c565b809150509250929050565b600181811c908216806110c257607f821691505b602082108114156110e357634e487b7160e01b600052602260045260246000fd5b50919050565b6020808252602e908201527f4f6e6c792074686520636f6e7472616374206f776e65722063616e2063616c6c60408201526d103a3434b990333ab731ba34b7b760911b606082015260800190565b634e487b7160e01b600052601160045260246000fd5b60008282101561115f5761115f611137565b500390565b634e487b7160e01b600052603260045260246000fd5b600060001982141561118e5761118e611137565b5060010190565b600082198211156111a8576111a8611137565b500190565b634e487b7160e01b600052603160045260246000fd5b60008160001904831182151516156111dd576111dd611137565b50029056fea264697066735822122048288455b5ab7f921d1b7beeb830ec4c066621503384b01c53d460004568ae1a64736f6c634300080c0033",
  "linkReferences": {},
  "deployedLinkReferences": {}
}